:040000006AEF00F0B3
:100008005982FACF03F0FBCF04F0D9CF05F0DACF4D
:1000180006F0F2AC12EF00F014EF00F060EF00F021
:100028009DA819EF00F01BEF00F031EF00F09EA83B
:1000380020EF00F022EF00F031EF00F002D82FEFB0
:1000480000F00500FA6E5650FD6E5750FE6EF850DF
:10005800FF6EFA50120060EF00F09DAA36EF00F034
:1000680038EF00F04EEF00F09EAA3DEF00F03FEFB2
:1000780000F04EEF00F002D84CEF00F00500FA6EE9
:100088005450FD6E5550FE6EF850FF6EFA50120037
:1000980060EF00F09DA053EF00F055EF00F060EF27
:1000A80000F09EA05AEF00F05CEF00F060EF00F067
:1000B8006CEC0BF060EF00F006C0DAFF05C0D9FF6A
:1000C80004C0FBFF03C0FAFF5992110016EF0CF0B1
:101000000009111A222B333C444D555E666F7780E0
:10101000889199A2AAB3BBC4CCD5DDE6EEF7FFF761
:10102000EEE6DDD5CCC4BBB3AAA299918880776FD8
:10103000665E564D443C332B221A11090000000015
:1010400000000000000000000000000000000000A0
:101050000000000000000000000000FFFFFFFFFF95
:10106000FFFFFFFFFFFFFFFFFFFFFFFFFFFFFFFF90
:10107000FFFFFFFFFFFFFFFFFFFEFEFCF9F4EEE7BF
:10108000DED5CABFB3A79A8D7F7265584C40352A0A
:101090002118110B060301000103060B1118212A68
:1010A00035404C586572808D9AA7B3BFCAD5DEE72C
:1010B000EEF4F9FCFE00400100766575696C6C6524
:1010C0007220656E7472657220756E6520746F751E
:0910D0006368652000256300003F
:1010DA005BEC0CF0F28EF28C840E076E170E086E23
:1010EA007FEC0CF0C68A898AB90E2B6E100E2C6E14
:1010FA0029EC0CF0000E00018A6FCCEF08F0BDEC71
:10110A000AF00001886F88518B6F8C6BD50E2B6E9D
:10111A00100E2C6E8BC02DF08CC02EF029EC0CF02A
:10112A00730E00018B198C11D8A49EEF08F0A0EF62
:10113A0008F0A4EF08F0010E8A6FCCEF08F0630EF6
:10114A008B198C11D8A4ACEF08F0AEEF08F0B2EF0F
:10115A0008F0020E8A6FCCEF08F0740E8B198C110E
:10116A00D8A4BAEF08F0BCEF08F0C0EF08F0030EFD
:10117A008A6FCCEF08F0CCEF08F08AEC0BF0CCEFDA
:10118A0008F02CEC0BF0CCEF08F00CEC0BF00001A3
:10119A008A51886F896B8951000AD8B4D7EF08F051
:1011AA00CCEF08F08851000AD8B484EF08F0010A9D
:1011BA00D8B4C2EF08F0030AD8B4C6EF08F0010A9F
:1011CA00D8B4CAEF08F0CCEF08F06AEF00F01CC000
:1011DA00D9FF1DC0DAFFDECFF6FFDDCFF7FF08002B
:1011EA00F550250AD8A4FCEF08F0FEEF08F04BEF03
:1011FA0009F01CC0D9FF1DC0DAFFDE2A000EDD226D
:10120A00000E426E000E416E41C047F043684468CA
:10121A001CC0D9FF1DC0DAFFDECFF6FFDDCFF7FF16
:10122A000800F550630AD8A41DEF09F01FEF09F072
:10123A0042EF09F01CC0D9FF1DC0DAFFDE2A000EFA
:10124A00DD221EC0D9FF1FC0DAFFDFCF20F0020E59
:10125A00DE26DFCF21F0000EDD2220C0D9FF21C01B
:10126A00DAFFDF50226E1AC012F01BC013F022C040
:10127A0014F0C0EC09F05FEF09F01CC0D9FF1DC0E3
:10128A00DAFFDE2A000EDD225FEF09F01CC0D9FF6B
:10129A001DC0DAFFDECFF6FFDDCFF7FF0800F550FD
:1012AA00096E0A6A1AC00BF01BC00CF00DEC0AF0AA
:1012BA0042EF09F01200310E4B24D96EDA6A000EA1
:1012CA00DA22000EDF6EABA46DEF09F06FEF09F0C2
:1012DA0083EF09F0310E4B24D96EDA6A000EDA2256
:1012EA00DF8202D883EF09F00500FA6E4E50FD6ED8
:1012FA004F50FE6EF850FF6EFA501200ABA288EF04
:10130A0009F08AEF09F09FEF09F0310E4B24D96EEC
:10131A00DA6A000EDA22DF8402D89FEF09F00500AC
:10132A000001FA6E8F51FD6E9051FE6EF850FF6EFD
:10133A00FA501200310E4B24D96EDA6A000EDA2204
:10134A00DF50D8B4ABEF09F0ADEF09F0BDEF09F00B
:10135A0002D8BBEF09F005000001FA6E8D51FD6E4F
:10136A008E51FE6EF850FF6EFA501200BFEF09F070
:10137A00EDEC0BF0120041504210D8A4C7EF09F06F
:10138A00C9EF09F0CFEF09F041C018F042C019F0D7
:10139A00D5EF09F0FF0E4124186EFF0E4220196E98
:1013AA0019BEDAEF09F0DCEF09F0DEEF09F0E2EF3F
:1013BA0009F0000E196E000E186E000E176E000E60
:1013CA00166EF4EF09F0000E0A6E200E096E12C0B6
:1013DA000BF013C00CF00DEC0AF0164A172A18503D
:1013EA00165C1750800A156E1950800A1558D8A035
:1013FA0001EF0AF003EF0AF0E8EF09F014C009F070
:10140A000A6A12C00BF013C00CF00DEC0AF01200BD
:10141A000B500C10D8B414EF0AF016EF0AF01FEFB5
:10142A000AF00B500C10D8A41DEF0AF01FEF0AF0B7
:10143A0024EF0AF009507AEC0CF057EF0AF020EE8C
:10144A0009F00B50D9260C50DA22DE50DE10D8B43F
:10145A0031EF0AF033EF0AF04EEF0AF020EE09F00E
:10146A000B50D9260C50DA2210EE03F00B50E1266D
:10147A000C50E222DE50E65CE650800A116EDE5025
:10148A00800A1158D8B04CEF0AF04EEF0AF057EF25
:10149A000AF020EE03F00B50D9260C50DA22DE2A8D
:1014AA00000EDD2212009D9AC00E076E120E086E03
:1014BA0089EC0CF09D98980E076E160E086E84EC57
:1014CA000CF0080EA76E900EAB6E240EAC6E080ED2
:1014DA00AF6E020E7D6E4C0E076E190E086E93ECFF
:1014EA000CF03A0E076E190E086E8EEC0CF0400ED8
:1014FA00076E190E086E98EC0CF0000E486E000E7E
:10150A004D6E000E4C6E080E586E000E4B6E000E9D
:10151A004A6E000E496E9D8A1200076E5850D8B462
:10152A0099EF0AF09BEF0AF093EF0AF09DB8A0EF4B
:10153A000AF0A2EF0AF0A6EF0AF007C0ADFFBBEF70
:10154A000AF09D98390E4D24D96EDA6A000EDA2215
:10155A0007C0DFFF4D2A070E4D64B6EF0AF0B8EF59
:10156A000AF0BAEF0AF0000E4D6E58069D88120076
:10157A004950D8B4C3EF0AF0C5EF0AF0BDEF0AF03C
:10158A00310E4A24D96EDA6A000EDA22DF50486E2A
:10159A00800E4A24D96EDA6A000EDA22DF50076E0C
:1015AA004A2A070E4A64DCEF0AF0DEEF0AF0E0EF9F
:1015BA000AF0000E4A6E9D9A49069D8A075012004B
:1015CA0025C029F026C02AF0F9EF0AF023C01AF044
:1015DA0024C01BF0290E1C6E000E1D6E27C01EF0C3
:1015EA0028C01FF0ECEC08F029C0F6FF2AC0F7FF6C
:1015FA000800F5500009D8A405EF0BF007EF0BF02F
:10160A00EBEF0AF0000E246E000E236E1200000E9D
:10161A000B6E010E0B24F66EF76A100EF722080005
:10162A00F5503CEC0CF0070E0A6E7D0EE82EFED744
:10163A000A2EFCD700F00B2A3B0E0B6427EF0BF0A7
:10164A0029EF0BF00EEF0BF00CEF0BF01200000E6F
:10165A000B6E3D0E0B24F66EF76A100EF722080089
:10166A00F5503CEC0CF0070E0A6E7D0EE82EFED704
:10167A000A2EFCD700F00B2A3B0E0B6447EF0BF047
:10168A0049EF0BF02EEF0BF02CEF0BF01200080EC7
:10169A00586052EF0BF054EF0BF06AEF0BF0390E73
:1016AA004C24D96EDA6A000EDA22DF50AD6E4C2A6B
:1016BA00070E4C6463EF0BF065EF0BF067EF0BF06E
:1016CA00000E4C6E582A6BEF0BF09D9812009E90FC
:1016DA0052C001F053C002F002EC0CF0505051100D
:1016EA00D8B47AEF0BF07CEF0BF089EF0BF002D84D
:1016FA0089EF0BF00500FA6E5050FD6E5150FE6EE8
:10170A00F850FF6EFA5012001200000E466E000EDC
:10171A00456E000E0A6E790E0A24F66EF76A100EEE
:10172A00F7220800F5503CEC0CF00A2A3B0E0A643A
:10173A00A1EF0BF0A3EF0BF090EF0BF08EEF0BF095
:10174A001200000EAA6E000ECF6E000ECE6E9E9094
:10175A00CE50CFCF09F00A6A09C00AF0096A091007
:10176A00526E0A50536E9D804A0E076E190E086E0D
:10177A007FEC0CF0010ECD6E1200FF0E026E0168B6
:10178A0002EC0CF0454A462A060E45184610D8A423
:10179A00D1EF0BF0D3EF0BF0D7EF0BF0000E466E44
:1017AA00000E456E1200000E896E000E8A6E000E43
:1017BA008B6ECF0E926EDF0E936E970E946E1F0E87
:1017CA000F015D6F070E5C6F000E5B6FF18E1200EA
:1017DA00800E4B24D96EDA6A000EDA22AECFDFFF12
:1017EA004B2A070E4B64FCEF0BF0FEEF0BF000EFF9
:1017FA000CF0000E4B6E492A1200CDA407EF0CF034
:10180A0009EF0CF011EF0CF0CD900250CF6E01C031
:10181A00CEFFCD8015EF0CF00250CF6E01C0CEFF87
:10182A00120000EE60F0280EEE6AE806FDE100EE16
:10183A0031F01D0EEE6AE806FDE159905992000E4C
:10184A00F86E00016DEF08F02D0E2F6E000E306E4F
:10185A00000E236E000E246E2BC025F02CC026F03D
:10186A002F0E276E000E286EE5EC0AF01200096EA4
:10187A00899A070E086E7D0EE82EFED7082EFCD731
:10188A0000F0110E4EEC0CF009504EEC0CF0898A67
:10189A001200076E07C0C9FF9EA656EF0CF058EF5C
:1018AA000CF051EF0CF09E96C9501200A3EC0CF00C
:1018BA0068EC0CF0D8EC0BF071EC0CF0A6EC0BF029
:1018CA0058EC0AF01200400EC76E000EC66E010EEA
:1018DA00C86E9496C69A1200700ED36E000ED26E1F
:1018EA00000E9B6E000E9A6E1200086E085092EC63
:1018FA000AF0120007C050F008C051F0120007C0E9
:10190A0056F008C057F0120007C054F008C055F04E
:10191A00120007C08FF008C090F0120007C04EF006
:10192A0008C04FF0120007C08DF008C08EF01200F8
:10193A00AB98AB881200EDEC0BF01200D09E1200AF
:04194A001200120075
:020000040020DA
:08000000FFFFFFFFFFFFFFFF00
:020000040030CA
:0E00000015027F7CFF8991FF0FC00FE00F40BB
:00000001FF
